{
  "transactions": [
    {
      "hash": "0xd9f55acc7c7aa71f8380f30dd9d6755687219b2463addf0c842d983964eb5afb",
      "transactionType": "CALL",
      "contractName": null,
      "contractAddress": "0xe115098b8edb409d32a6e35c9521403a5ad5586a",
      "function": "approve(address,uint256)",
      "arguments": [
        "0x055b28C14E5A54aeB9dbEED805658305e30531ee",
        "1000000000000000000"
      ],
      "transaction": {
        "from": "0x453c407e06e4b8c8f9a862208ab45348ab2f8403",
        "to": "0xe115098b8edb409d32a6e35c9521403a5ad5586a",
        "gas": "0xf920",
        "value": "0x0",
        "input": "0x095ea7b3000000000000000000000000055b28c14e5a54aeb9dbeed805658305e30531ee0000000000000000000000000000000000000000000000000de0b6b3a7640000",
        "nonce": "0x6a",
        "chainId": "0xaa36a7"
      },
      "additionalContracts": [],
      "isFixedGasLimit": false
    },
    {
      "hash": "0x22ed2568dc867ad66fb3b9ada3a86a4ab9c229dbf66598f211d5b5bc1979d202",
      "transactionType": "CALL",
      "contractName": null,
      "contractAddress": "0x055b28c14e5a54aeb9dbeed805658305e30531ee",
      "function": "buy(uint256)",
      "arguments": [
        "441711766194596082395824375185729628956870974218904739530401550323154944"
      ],
      "transaction": {
        "from": "0x453c407e06e4b8c8f9a862208ab45348ab2f8403",
        "to": "0x055b28c14e5a54aeb9dbeed805658305e30531ee",
        "gas": "0x14d8b",
        "value": "0x1",
        "input": "0xd96a094a0000400000000000000000000000000000000000000000000000000000000000",
        "nonce": "0x6b",
        "chainId": "0xaa36a7"
      },
      "additionalContracts": [],
      "isFixedGasLimit": false
    },
    {
      "hash": "0xc1287a33d15f199c354361347f8b77b56c64d5e39e1ad379655f994579fc7469",
      "transactionType": "CALL",
      "contractName": null,
      "contractAddress": "0x055b28c14e5a54aeb9dbeed805658305e30531ee",
      "function": "sell(uint256)",
      "arguments": [
        "1"
      ],
      "transaction": {
        "from": "0x453c407e06e4b8c8f9a862208ab45348ab2f8403",
        "to": "0x055b28c14e5a54aeb9dbeed805658305e30531ee",
        "gas": "0x131ee",
        "value": "0x0",
        "input": "0xe4849b320000000000000000000000000000000000000000000000000000000000000001",
        "nonce": "0x6c",
        "chainId": "0xaa36a7"
      },
      "additionalContracts": [],
      "isFixedGasLimit": false
    },
    {
      "hash": "0x808bc36ce0f6046263b96268b40fb09c9623f1c14963f9bf9e77ba0728730de2",
      "transactionType": "CALL",
      "contractName": null,
      "contractAddress": "0x055b28c14e5a54aeb9dbeed805658305e30531ee",
      "function": "WithrawFunds()",
      "arguments": [],
      "transaction": {
        "from": "0x453c407e06e4b8c8f9a862208ab45348ab2f8403",
        "to": "0x055b28c14e5a54aeb9dbeed805658305e30531ee",
        "gas": "0xccc3",
        "value": "0x0",
        "input": "0xc9bed76d",
        "nonce": "0x6d",
        "chainId": "0xaa36a7"
      },
      "additionalContracts": [],
      "isFixedGasLimit": false
    },
    {
      "hash": "0x999f266c4ca85d03b0c680ae015cbadf176d847b5e82deeef52da591ef248aec",
      "transactionType": "CALL",
      "contractName": null,
      "contractAddress": "0x7e6680f198be87b6fabe31b3e9c6581f8ee85df1",
      "function": "Complete(address)",
      "arguments": [
        "0x055b28C14E5A54aeB9dbEED805658305e30531ee"
      ],
      "transaction": {
        "from": "0x453c407e06e4b8c8f9a862208ab45348ab2f8403",
        "to": "0x7e6680f198be87b6fabe31b3e9c6581f8ee85df1",
        "gas": "0x2ed16",
        "value": "0x0",
        "input": "0xe7e59600000000000000000000000000055b28c14e5a54aeb9dbeed805658305e30531ee",
        "nonce": "0x6e",
        "chainId": "0xaa36a7"
      },
      "additionalContracts": [],
      "isFixedGasLimit": false
    }
  ],
  "receipts": [
    {
      "status": "0x1",
      "cumulativeGasUsed": "0x2044316",
      "logs": [
        {
          "address": "0xe115098b8edb409d32a6e35c9521403a5ad5586a",
          "topics": [
            "0x8c5be1e5ebec7d5bd14f71427d1e84f3dd0314c0f7b2291e5b200ac8c7c3b925",
            "0x000000000000000000000000453c407e06e4b8c8f9a862208ab45348ab2f8403",
            "0x000000000000000000000000055b28c14e5a54aeb9dbeed805658305e30531ee"
          ],
          "data": "0x0000000000000000000000000000000000000000000000000de0b6b3a7640000",
          "blockHash": "0xab365bbbdf29ca8ad4f910ae5be5ae56927f39e8a9337040bc1ba0c378670a60",
          "blockNumber": "0x8dae8d",
          "blockTimestamp": "0x68d6c3e4",
          "transactionHash": "0xd9f55acc7c7aa71f8380f30dd9d6755687219b2463addf0c842d983964eb5afb",
          "transactionIndex": "0x53",
          "logIndex": "0x53",
          "removed": false
        }
      ],
      "logsBloom": "0x00000000000000000000000000000040000000000000000000000000000000000000000000000000000000000000000000000000000000200000010000200000000000000200000000002000000000000000000000000000000000000000040000000000000000000000000000000000000000000000000000000000000000000002000000000000000000000000000004000000000000000000000000000000020000000000000000000000000000000000000002000000000000000000000000000000000000000000000000000000000000000000000000000000000000000010000000000000000000000000000000000000000000000000000000000000",
      "type": "0x2",
      "transactionHash": "0xd9f55acc7c7aa71f8380f30dd9d6755687219b2463addf0c842d983964eb5afb",
      "transactionIndex": "0x53",
      "blockHash": "0xab365bbbdf29ca8ad4f910ae5be5ae56927f39e8a9337040bc1ba0c378670a60",
      "blockNumber": "0x8dae8d",
      "gasUsed": "0xb45e",
      "effectiveGasPrice": "0xf424e",
      "from": "0x453c407e06e4b8c8f9a862208ab45348ab2f8403",
      "to": "0xe115098b8edb409d32a6e35c9521403a5ad5586a",
      "contractAddress": null
    },
    {
      "status": "0x1",
      "cumulativeGasUsed": "0x2052727",
      "logs": [
        {
          "address": "0xe115098b8edb409d32a6e35c9521403a5ad5586a",
          "topics": [
            "0xddf252ad1be2c89b69c2b068fc378daa952ba7f163c4a11628f55a4df523b3ef",
            "0x000000000000000000000000453c407e06e4b8c8f9a862208ab45348ab2f8403",
            "0x000000000000000000000000055b28c14e5a54aeb9dbeed805658305e30531ee"
          ],
          "data": "0x0000000000000000000000000000000000000000000000000000000000000000",
          "blockHash": "0xab365bbbdf29ca8ad4f910ae5be5ae56927f39e8a9337040bc1ba0c378670a60",
          "blockNumber": "0x8dae8d",
          "blockTimestamp": "0x68d6c3e4",
          "transactionHash": "0x22ed2568dc867ad66fb3b9ada3a86a4ab9c229dbf66598f211d5b5bc1979d202",
          "transactionIndex": "0x54",
          "logIndex": "0x54",
          "removed": false
        }
      ],
      "logsBloom": "0x00000000000000000000000000000040000000000000000000000000000000000000000000000000000000000000000000000000000000200000010000000000000000000200000000002008000000000000000000000000000000000000040000000000000000000000000000000000000000000000000000000010000000000002000000000000000000000000000004000000000000000000000000000000000000000000000000000000000000000000000002000000000000000000000000000002000000000000000000000000000000000000000000000000000000000000000000000000000000000000000000000000000000000000000000000000",
      "type": "0x2",
      "transactionHash": "0x22ed2568dc867ad66fb3b9ada3a86a4ab9c229dbf66598f211d5b5bc1979d202",
      "transactionIndex": "0x54",
      "blockHash": "0xab365bbbdf29ca8ad4f910ae5be5ae56927f39e8a9337040bc1ba0c378670a60",
      "blockNumber": "0x8dae8d",
      "gasUsed": "0xe411",
      "effectiveGasPrice": "0xf424e",
      "from": "0x453c407e06e4b8c8f9a862208ab45348ab2f8403",
      "to": "0x055b28c14e5a54aeb9dbeed805658305e30531ee",
      "contractAddress": null
    },
    {
      "status": "0x1",
      "cumulativeGasUsed": "0x20604a5",
      "logs": [
        {
          "address": "0xe115098b8edb409d32a6e35c9521403a5ad5586a",
          "topics": [
            "0xddf252ad1be2c89b69c2b068fc378daa952ba7f163c4a11628f55a4df523b3ef",
            "0x000000000000000000000000055b28c14e5a54aeb9dbeed805658305e30531ee",
            "0x000000000000000000000000453c407e06e4b8c8f9a862208ab45348ab2f8403"
          ],
          "data": "0x0000000000000000000000000000000000000000000000000de0b6b3a7640000",
          "blockHash": "0xab365bbbdf29ca8ad4f910ae5be5ae56927f39e8a9337040bc1ba0c378670a60",
          "blockNumber": "0x8dae8d",
          "blockTimestamp": "0x68d6c3e4",
          "transactionHash": "0xc1287a33d15f199c354361347f8b77b56c64d5e39e1ad379655f994579fc7469",
          "transactionIndex": "0x55",
          "logIndex": "0x55",
          "removed": false
        }
      ],
      "logsBloom": "0x00000000000000000000000000000040000000000000000000000000000000000000000000000000000000000000000000000000000000200000010000000000000000000200000000002008000000000000000000000000000000000000040000000000000000000000000000000000000000000000000000000010000000000002000000000000000000000000000004000000000000000000000000000000000000000000000000000000000000000000000002000000000000000000000000000002000000000000000000000000000000000000000000000000000000000000000000000000000000000000000000000000000000000000000000000000",
      "type": "0x2",
      "transactionHash": "0xc1287a33d15f199c354361347f8b77b56c64d5e39e1ad379655f994579fc7469",
      "transactionIndex": "0x55",
      "blockHash": "0xab365bbbdf29ca8ad4f910ae5be5ae56927f39e8a9337040bc1ba0c378670a60",
      "blockNumber": "0x8dae8d",
      "gasUsed": "0xdd7e",
      "effectiveGasPrice": "0xf424e",
      "from": "0x453c407e06e4b8c8f9a862208ab45348ab2f8403",
      "to": "0x055b28c14e5a54aeb9dbeed805658305e30531ee",
      "contractAddress": null
    },
    {
      "status": "0x1",
      "cumulativeGasUsed": "0x20690a8",
      "logs": [],
      "logsBloom": "0x00000000000000000000000000000000000000000000000000000000000000000000000000000000000000000000000000000000000000000000000000000000000000000000000000000000000000000000000000000000000000000000000000000000000000000000000000000000000000000000000000000000000000000000000000000000000000000000000000000000000000000000000000000000000000000000000000000000000000000000000000000000000000000000000000000000000000000000000000000000000000000000000000000000000000000000000000000000000000000000000000000000000000000000000000000000",
      "type": "0x2",
      "transactionHash": "0x808bc36ce0f6046263b96268b40fb09c9623f1c14963f9bf9e77ba0728730de2",
      "transactionIndex": "0x56",
      "blockHash": "0xab365bbbdf29ca8ad4f910ae5be5ae56927f39e8a9337040bc1ba0c378670a60",
      "blockNumber": "0x8dae8d",
      "gasUsed": "0x8c03",
      "effectiveGasPrice": "0xf424e",
      "from": "0x453c407e06e4b8c8f9a862208ab45348ab2f8403",
      "to": "0x055b28c14e5a54aeb9dbeed805658305e30531ee",
      "contractAddress": null
    },
    {
      "status": "0x1",
      "cumulativeGasUsed": "0x208aefc",
      "logs": [],
      "logsBloom": "0x00000000000000000000000000000000000000000000000000000000000000000000000000000000000000000000000000000000000000000000000000000000000000000000000000000000000000000000000000000000000000000000000000000000000000000000000000000000000000000000000000000000000000000000000000000000000000000000000000000000000000000000000000000000000000000000000000000000000000000000000000000000000000000000000000000000000000000000000000000000000000000000000000000000000000000000000000000000000000000000000000000000000000000000000000000000",
      "type": "0x2",
      "transactionHash": "0x999f266c4ca85d03b0c680ae015cbadf176d847b5e82deeef52da591ef248aec",
      "transactionIndex": "0x57",
      "blockHash": "0xab365bbbdf29ca8ad4f910ae5be5ae56927f39e8a9337040bc1ba0c378670a60",
      "blockNumber": "0x8dae8d",
      "gasUsed": "0x21e54",
      "effectiveGasPrice": "0xf424e",
      "from": "0x453c407e06e4b8c8f9a862208ab45348ab2f8403",
      "to": "0x7e6680f198be87b6fabe31b3e9c6581f8ee85df1",
      "contractAddress": null
    }
  ],
  "libraries": [],
  "pending": [],
  "returns": {},
  "timestamp": 1758905316211,
  "chain": 11155111,
  "commit": "41f152f"
}